:020000000328D3
:100006008316031307108811831207140630FB00AA
:100016001330FC00AD30FD00FD0B0F28FC0B0F2844
:10002600FB0B0F280000000007100630FB00133002
:10003600FC00AD30FD00FD0B1E28FC0B1E28FB0B43
:100046001E280000000088150630FB001330FC0057
:10005600AD30FD00FD0B2D28FC0B2D28FB0B2D28AC
:100066000000000088110630FB001330FC00AD30A4
:10007600FD00FD0B3C28FC0B3C28FB0B3C2800003C
:06008600000007284528D8
:02400E004A2F37
:00000001FF
